:02000000E228F4
:08000800DF00030E8312A000CB
:0E0010000A0EA100040EA2008A110A12E928AD
:100020000330B807B80CB80C7F30B8050000B80B27
:1000300016280800B401B501330834023508031846
:10004000232803192528B51F3D28B601B70132081A
:100050003602370803182E2803193028B71F39280D
:100060003108B800102004308506B60A0319B70A13
:100070002728B40A0319B50A1C2805110800A80A84
:1000800028083C3A031D5428A801A60A26083C3A31
:10009000031D5428A601A70A2F082706031D54286C
:1000A000A7010130A900A50181012B0881000800EA
:1000B000A80A28083C3A031D7728A801A60AAC0A1A
:1000C00030082C06031D6B28C830B100B200053083
:1000D000B3001A20AC012F082606031D7728A601BD
:1000E000A501A901851085018B128B130B118101CC
:1000F0002B088100080081010730831681008312DC
:100100000B118B172D0881008B160130AE000800F3
:100110008316990107308312990083169F01831279
:10012000850111308316850095018312A601A70170
:10013000A801A901AA01AB01AC01A5018B128B1387
:100140000B116430B800102008008312AD01AD0817
:10015000031DB228AD01051CAE28AD0AFF30B80062
:100160001020A7282D081139AD002D08AE00080079
:1001700083128316FF2383169000831283128A1141
:100180000A1288208514C830B100FF30B2000A304E
:10019000B3001A208510A508031DCB28A5202E0822
:1001A000A300A4010130230603192408031DCB2852
:1001B000A901BC30AB002B08AD007B202E08A500A8
:1001C0008514CB288312A301A401AC018A110A1261
:1001D000B82883128B128B13A908031DF22809304B
:1001E000AF003F200B112503031DFB28A908031DA9
:1001F000FB288B178B162903031D0829A508031D4F
:1002000008298B178B163C30AF000130B000582006
:10021000220E8400210E8A00200E8300DF0E5F0E66
:020220000900D3
:00000001FF
